:100000000C942A000C9434000C9434000C943400AA
:100010000C9434000C9434000C9434000C94340090
:100020000C9434000C9434000C9434000C94340080
:100030000C9434000C9434000C9434000C94340070
:100040000C9434000C9434000C9434000C94340060
:100050000C94340011241FBECFE5D8E0DEBFCDBF25
:100060000E941E010C945B010C940000442379F162
:10007000413009F05FC0813079F028F08230A9F07A
:100080008330E1F008952AB381E090E001C0880F49
:100090006A95EAF7822B2CC027B381E090E001C07B
:1000A000880F6A95EAF7822B2EC024B381E090E096
:1000B00001C0880F6A95EAF7822B30C021B381E036
:1000C00090E001C0880F6A95EAF7822B32C0813038
:1000D00089F028F08230C9F0833011F108952AB3F5
:1000E00081E090E001C0880F6A95EAF7809582234D
:1000F0008ABB089527B381E090E001C0880F6A951C
:10010000EAF78095822387BB089524B381E090E0CD
:1001100001C0880F6A95EAF78095822384BB089511
:1001200021B381E090E001C0880F6A95EAF78095DD
:10013000822381BB0895442379F1413009F05FC0E7
:10014000813079F028F08230A9F08330E1F0089511
:100150002BB381E090E001C0880F6A95EAF7822B0B
:100160002CC028B381E090E001C0880F6A95EAF7BF
:10017000822B2EC025B381E090E001C0880F6A95E4
:10018000EAF7822B30C022B381E090E001C0880FF3
:100190006A95EAF7822B32C0813089F028F08230EC
:1001A000C9F0833011F108952BB381E090E001C0D4
:1001B000880F6A95EAF7809582238BBB089528B350
:1001C00081E090E001C0880F6A95EAF7809582236C
:1001D00088BB089525B381E090E001C0880F6A953F
:1001E000EAF78095822385BB089522B381E090E0F1
:1001F00001C0880F6A95EAF78095822382BB089533
:1002000041E060E080E00C94360041E060E080E096
:100210000C949B0040E060E080E00C949B0041E087
:1002200061E080E00C94360041E061E080E00C94F5
:100230009B0040E061E080E00C949B000E943B0149
:100240000E9400010E940F010E945701823369F051
:1002500028F48133C9F70E940501F6CF833341F0BA
:10026000843391F70E941901EFCF0E940A01ECCF6D
:100270000E941401E9CF40E064E081E00E94360072
:1002800040E065E081E00E94360041E066E081E008
:100290000E94360040E067E081E00E9436006898E6
:1002A00069986A986B986C986D986E9A0895779B88
:0A02B000FECF8FB10895F894FFCF40
:00000001FF
